{
  "contractName": "Vote",
  "abi": [
    {
      "inputs": [
        {
          "internalType": "string",
          "name": "_topic",
          "type": "string"
        }
      ],
      "stateMutability": "nonpayable",
      "type": "constructor"
    },
    {
      "inputs": [
        {
          "internalType": "uint256",
          "name": "",
          "type": "uint256"
        }
      ],
      "name": "candidates",
      "outputs": [
        {
          "internalType": "uint256",
          "name": "id",
          "type": "uint256"
        },
        {
          "internalType": "string",
          "name": "name",
          "type": "string"
        },
        {
          "internalType": "uint256",
          "name": "voteCount",
          "type": "uint256"
        }
      ],
      "stateMutability": "view",
      "type": "function",
      "constant": true
    },
    {
      "inputs": [],
      "name": "candidatesCount",
      "outputs": [
        {
          "internalType": "uint256",
          "name": "",
          "type": "uint256"
        }
      ],
      "stateMutability": "view",
      "type": "function",
      "constant": true
    },
    {
      "inputs": [],
      "name": "voteTopic",
      "outputs": [
        {
          "internalType": "string",
          "name": "",
          "type": "string"
        }
      ],
      "stateMutability": "view",
      "type": "function",
      "constant": true
    },
    {
      "inputs": [
        {
          "internalType": "address",
          "name": "",
          "type": "address"
        }
      ],
      "name": "voters",
      "outputs": [
        {
          "internalType": "bool",
          "name": "",
          "type": "bool"
        }
      ],
      "stateMutability": "view",
      "type": "function",
      "constant": true
    },
    {
      "inputs": [
        {
          "internalType": "string",
          "name": "_name",
          "type": "string"
        }
      ],
      "name": "addNewCandidate",
      "outputs": [],
      "stateMutability": "nonpayable",
      "type": "function"
    },
    {
      "inputs": [
        {
          "internalType": "uint256",
          "name": "_candidateId",
          "type": "uint256"
        }
      ],
      "name": "vote",
      "outputs": [],
      "stateMutability": "nonpayable",
      "type": "function"
    },
    {
      "inputs": [
        {
          "internalType": "string",
          "name": "_topic",
          "type": "string"
        }
      ],
      "name": "setVoteTopic",
      "outputs": [],
      "stateMutability": "nonpayable",
      "type": "function"
    }
  ],
  "bytecode": "0x60806040523480156200001157600080fd5b506040516200168138038062001681833981810160405281019062000037919062000334565b8060009081620000489190620005d0565b506200008f6040518060400160405280600381526020017f4b696d00000000000000000000000000000000000000000000000000000000008152506200012260201b60201c565b620000d56040518060400160405280600381526020017f4c656500000000000000000000000000000000000000000000000000000000008152506200012260201b60201c565b6200011b6040518060400160405280600481526020017f5061726b000000000000000000000000000000000000000000000000000000008152506200012260201b60201c565b5062000733565b600360008154809291906200013790620006e6565b9190505550604051806060016040528060035481526020018281526020016000815250600160006003548152602001908152602001600020600082015181600001556020820151816001019081620001909190620005d0565b506040820151816002015590505050565b6000604051905090565b600080fd5b600080fd5b600080fd5b600080fd5b6000601f19601f8301169050919050565b7f4e487b7100000000000000000000000000000000000000000000000000000000600052604160045260246000fd5b6200020a82620001bf565b810181811067ffffffffffffffff821117156200022c576200022b620001d0565b5b80604052505050565b600062000241620001a1565b90506200024f8282620001ff565b919050565b600067ffffffffffffffff821115620002725762000271620001d0565b5b6200027d82620001bf565b9050602081019050919050565b60005b83811015620002aa5780820151818401526020810190506200028d565b60008484015250505050565b6000620002cd620002c78462000254565b62000235565b905082815260208101848484011115620002ec57620002eb620001ba565b5b620002f98482856200028a565b509392505050565b600082601f830112620003195762000318620001b5565b5b81516200032b848260208601620002b6565b91505092915050565b6000602082840312156200034d576200034c620001ab565b5b600082015167ffffffffffffffff8111156200036e576200036d620001b0565b5b6200037c8482850162000301565b91505092915050565b600081519050919050565b7f4e487b7100000000000000000000000000000000000000000000000000000000600052602260045260246000fd5b60006002820490506001821680620003d857607f821691505b602082108103620003ee57620003ed62000390565b5b50919050565b60008190508160005260206000209050919050565b60006020601f8301049050919050565b600082821b905092915050565b600060088302620004587fffffffffffffffffffffffffffffffffffffffffffffffffffffffffffffffff8262000419565b62000464868362000419565b95508019841693508086168417925050509392505050565b6000819050919050565b6000819050919050565b6000620004b1620004ab620004a5846200047c565b62000486565b6200047c565b9050919050565b6000819050919050565b620004cd8362000490565b620004e5620004dc82620004b8565b84845462000426565b825550505050565b600090565b620004fc620004ed565b62000509818484620004c2565b505050565b5b81811015620005315762000525600082620004f2565b6001810190506200050f565b5050565b601f82111562000580576200054a81620003f4565b620005558462000409565b8101602085101562000565578190505b6200057d620005748562000409565b8301826200050e565b50505b505050565b600082821c905092915050565b6000620005a56000198460080262000585565b1980831691505092915050565b6000620005c0838362000592565b9150826002028217905092915050565b620005db8262000385565b67ffffffffffffffff811115620005f757620005f6620001d0565b5b620006038254620003bf565b6200061082828562000535565b600060209050601f83116001811462000648576000841562000633578287015190505b6200063f8582620005b2565b865550620006af565b601f1984166200065886620003f4565b60005b8281101562000682578489015182556001820191506020850194506020810190506200065b565b86831015620006a257848901516200069e601f89168262000592565b8355505b6001600288020188555050505b505050505050565b7f4e487b7100000000000000000000000000000000000000000000000000000000600052601160045260246000fd5b6000620006f3826200047c565b91507fffffffffffffffffffffffffffffffffffffffffffffffffffffffffffffffff8203620007285762000727620006b7565b5b600182019050919050565b610f3e80620007436000396000f3fe608060405234801561001057600080fd5b506004361061007d5760003560e01c806332736e0e1161005b57806332736e0e146100d85780633477ee2e146100f6578063a3ec138d14610128578063bebd2de3146101585761007d565b80630121b93f146100825780632d307d601461009e5780632d35a8a2146100ba575b600080fd5b61009c60048036038101906100979190610631565b610174565b005b6100b860048036038101906100b391906107a4565b6102d9565b005b6100c26103e1565b6040516100cf91906107fc565b60405180910390f35b6100e06103e7565b6040516100ed9190610896565b60405180910390f35b610110600480360381019061010b9190610631565b610475565b60405161011f939291906108b8565b60405180910390f35b610142600480360381019061013d9190610954565b610527565b60405161014f919061099c565b60405180910390f35b610172600480360381019061016d91906107a4565b610547565b005b600260003373ffffffffffffffffffffffffffffffffffffffff1673ffffffffffffffffffffffffffffffffffffffff16815260200190815260200160002060009054906101000a900460ff1615610201576040517f08c379a00000000000000000000000000000000000000000000000000000000081526004016101f890610a03565b60405180910390fd5b60008111801561021357506003548111155b610252576040517f08c379a000000000000000000000000000000000000000000000000000000000815260040161024990610a6f565b60405180910390fd5b6001600260003373ffffffffffffffffffffffffffffffffffffffff1673ffffffffffffffffffffffffffffffffffffffff16815260200190815260200160002060006101000a81548160ff0219169083151502179055506001600082815260200190815260200160002060020160008154809291906102d190610abe565b919050555050565b600260003373ffffffffffffffffffffffffffffffffffffffff1673ffffffffffffffffffffffffffffffffffffffff16815260200190815260200160002060009054906101000a900460ff1615610366576040517f08c379a000000000000000000000000000000000000000000000000000000000815260040161035d90610b78565b60405180910390fd5b6003600081548092919061037990610abe565b91905055506040518060600160405280600354815260200182815260200160008152506001600060035481526020019081526020016000206000820151816000015560208201518160010190816103d09190610da4565b506040820151816002015590505050565b60035481565b600080546103f490610bc7565b80601f016020809104026020016040519081016040528092919081815260200182805461042090610bc7565b801561046d5780601f106104425761010080835404028352916020019161046d565b820191906000526020600020905b81548152906001019060200180831161045057829003601f168201915b505050505081565b600160205280600052604060002060009150905080600001549080600101805461049e90610bc7565b80601f01602080910402602001604051908101604052809291908181526020018280546104ca90610bc7565b80156105175780601f106104ec57610100808354040283529160200191610517565b820191906000526020600020905b8154815290600101906020018083116104fa57829003601f168201915b5050505050908060020154905083565b60026020528060005260406000206000915054906101000a900460ff1681565b600260003373ffffffffffffffffffffffffffffffffffffffff1673ffffffffffffffffffffffffffffffffffffffff16815260200190815260200160002060009054906101000a900460ff16156105d4576040517f08c379a00000000000000000000000000000000000000000000000000000000081526004016105cb90610ee8565b60405180910390fd5b80600090816105e39190610da4565b5050565b6000604051905090565b600080fd5b600080fd5b6000819050919050565b61060e816105fb565b811461061957600080fd5b50565b60008135905061062b81610605565b92915050565b600060208284031215610647576106466105f1565b5b60006106558482850161061c565b91505092915050565b600080fd5b600080fd5b6000601f19601f8301169050919050565b7f4e487b7100000000000000000000000000000000000000000000000000000000600052604160045260246000fd5b6106b182610668565b810181811067ffffffffffffffff821117156106d0576106cf610679565b5b80604052505050565b60006106e36105e7565b90506106ef82826106a8565b919050565b600067ffffffffffffffff82111561070f5761070e610679565b5b61071882610668565b9050602081019050919050565b82818337600083830152505050565b6000610747610742846106f4565b6106d9565b90508281526020810184848401111561076357610762610663565b5b61076e848285610725565b509392505050565b600082601f83011261078b5761078a61065e565b5b813561079b848260208601610734565b91505092915050565b6000602082840312156107ba576107b96105f1565b5b600082013567ffffffffffffffff8111156107d8576107d76105f6565b5b6107e484828501610776565b91505092915050565b6107f6816105fb565b82525050565b600060208201905061081160008301846107ed565b92915050565b600081519050919050565b600082825260208201905092915050565b60005b83811015610851578082015181840152602081019050610836565b60008484015250505050565b600061086882610817565b6108728185610822565b9350610882818560208601610833565b61088b81610668565b840191505092915050565b600060208201905081810360008301526108b0818461085d565b905092915050565b60006060820190506108cd60008301866107ed565b81810360208301526108df818561085d565b90506108ee60408301846107ed565b949350505050565b600073ffffffffffffffffffffffffffffffffffffffff82169050919050565b6000610921826108f6565b9050919050565b61093181610916565b811461093c57600080fd5b50565b60008135905061094e81610928565b92915050565b60006020828403121561096a576109696105f1565b5b60006109788482850161093f565b91505092915050565b60008115159050919050565b61099681610981565b82525050565b60006020820190506109b1600083018461098d565b92915050565b7f596f75206861766520616c726561647920766f7465642e000000000000000000600082015250565b60006109ed601783610822565b91506109f8826109b7565b602082019050919050565b60006020820190508181036000830152610a1c816109e0565b9050919050565b7f496e76616c69642063616e6469646174652049442e0000000000000000000000600082015250565b6000610a59601583610822565b9150610a6482610a23565b602082019050919050565b60006020820190508181036000830152610a8881610a4c565b9050919050565b7f4e487b7100000000000000000000000000000000000000000000000000000000600052601160045260246000fd5b6000610ac9826105fb565b91507fffffffffffffffffffffffffffffffffffffffffffffffffffffffffffffffff8203610afb57610afa610a8f565b5b600182019050919050565b7f566f7465722063616e6e6f74206164642061206e65772063616e64696461746560008201527f20616674657220766f74696e672e000000000000000000000000000000000000602082015250565b6000610b62602e83610822565b9150610b6d82610b06565b604082019050919050565b60006020820190508181036000830152610b9181610b55565b9050919050565b7f4e487b7100000000000000000000000000000000000000000000000000000000600052602260045260246000fd5b60006002820490506001821680610bdf57607f821691505b602082108103610bf257610bf1610b98565b5b50919050565b60008190508160005260206000209050919050565b60006020601f8301049050919050565b600082821b905092915050565b600060088302610c5a7fffffffffffffffffffffffffffffffffffffffffffffffffffffffffffffffff82610c1d565b610c648683610c1d565b95508019841693508086168417925050509392505050565b6000819050919050565b6000610ca1610c9c610c97846105fb565b610c7c565b6105fb565b9050919050565b6000819050919050565b610cbb83610c86565b610ccf610cc782610ca8565b848454610c2a565b825550505050565b600090565b610ce4610cd7565b610cef818484610cb2565b505050565b5b81811015610d1357610d08600082610cdc565b600181019050610cf5565b5050565b601f821115610d5857610d2981610bf8565b610d3284610c0d565b81016020851015610d41578190505b610d55610d4d85610c0d565b830182610cf4565b50505b505050565b600082821c905092915050565b6000610d7b60001984600802610d5d565b1980831691505092915050565b6000610d948383610d6a565b9150826002028217905092915050565b610dad82610817565b67ffffffffffffffff811115610dc657610dc5610679565b5b610dd08254610bc7565b610ddb828285610d17565b600060209050601f831160018114610e0e5760008415610dfc578287015190505b610e068582610d88565b865550610e6e565b601f198416610e1c86610bf8565b60005b82811015610e4457848901518255600182019150602085019450602081019050610e1f565b86831015610e615784890151610e5d601f891682610d6a565b8355505b6001600288020188555050505b505050505050565b7f566f7465722063616e6e6f74207365742074686520766f746520746f7069632060008201527f616674657220766f74696e672e00000000000000000000000000000000000000602082015250565b6000610ed2602d83610822565b9150610edd82610e76565b604082019050919050565b60006020820190508181036000830152610f0181610ec5565b905091905056fea26469706673582212203ff1766ec388137179760340bafe820d1ce3b32d3231a79e23a54a435f4507a264736f6c63430008130033",
  "immutableReferences": {},
  "source": "// SPDX-License-Identifier: MIT\npragma solidity ^0.8.19;\n\ncontract Vote {\n    string public voteTopic;\n    struct Candidate {\n        uint256 id;\n        string name;\n        uint256 voteCount;\n    }\n\n    mapping(uint256 => Candidate) public candidates;\n    mapping(address => bool) public voters;\n    uint256 public candidatesCount;\n\n    constructor(string memory _topic) {\n        voteTopic = _topic;\n        addCandidate(\"Kim\");\n        addCandidate(\"Lee\");\n        addCandidate(\"Park\");\n    }\n\n    function addCandidate(string memory _name) private {\n        candidatesCount++;\n        candidates[candidatesCount] = Candidate(candidatesCount, _name, 0);\n    }\n\n    function addNewCandidate(string memory _name) public {\n        require(!voters[msg.sender], \"Voter cannot add a new candidate after voting.\");\n        candidatesCount++;\n        candidates[candidatesCount] = Candidate(candidatesCount, _name, 0);\n    }\n\n    function vote(uint256 _candidateId) public {\n        require(!voters[msg.sender], \"You have already voted.\");\n        require(_candidateId > 0 && _candidateId <= candidatesCount, \"Invalid candidate ID.\");\n\n        voters[msg.sender] = true;\n        candidates[_candidateId].voteCount++;\n    }\n\n    function setVoteTopic(string memory _topic) public {\n        require(!voters[msg.sender], \"Voter cannot set the vote topic after voting.\");\n        voteTopic = _topic;\n    }\n}",
  "sourcePath": "C:\\3.2\\webAppSec\\vote-web-main\\contracts\\vote.sol",
  "compiler": {
    "name": "solc",
    "version": "0.8.19+commit.7dd6d404.Emscripten.clang"
  },
  "schemaVersion": "3.4.16",
  "updatedAt": "2023-12-12T09:56:51.711Z",
  "networkType": "ethereum",
  "devdoc": {
    "kind": "dev",
    "methods": {},
    "version": 1
  },
  "userdoc": {
    "kind": "user",
    "methods": {},
    "version": 1
  }
}